{
  "contractName": "NauhCrowdsale",
  "abi": [
    {
      "constant": true,
      "inputs": [],
      "name": "hasClosed",
      "outputs": [
        {
          "name": "",
          "type": "bool"
        }
      ],
      "payable": false,
      "stateMutability": "view",
      "type": "function"
    },
    {
      "constant": true,
      "inputs": [],
      "name": "rate",
      "outputs": [
        {
          "name": "",
          "type": "uint256"
        }
      ],
      "payable": false,
      "stateMutability": "view",
      "type": "function"
    },
    {
      "constant": true,
      "inputs": [],
      "name": "cap",
      "outputs": [
        {
          "name": "",
          "type": "uint256"
        }
      ],
      "payable": false,
      "stateMutability": "view",
      "type": "function"
    },
    {
      "constant": true,
      "inputs": [],
      "name": "weiRaised",
      "outputs": [
        {
          "name": "",
          "type": "uint256"
        }
      ],
      "payable": false,
      "stateMutability": "view",
      "type": "function"
    },
    {
      "constant": true,
      "inputs": [],
      "name": "closingTime",
      "outputs": [
        {
          "name": "",
          "type": "uint256"
        }
      ],
      "payable": false,
      "stateMutability": "view",
      "type": "function"
    },
    {
      "constant": true,
      "inputs": [],
      "name": "capReached",
      "outputs": [
        {
          "name": "",
          "type": "bool"
        }
      ],
      "payable": false,
      "stateMutability": "view",
      "type": "function"
    },
    {
      "constant": true,
      "inputs": [],
      "name": "wallet",
      "outputs": [
        {
          "name": "",
          "type": "address"
        }
      ],
      "payable": false,
      "stateMutability": "view",
      "type": "function"
    },
    {
      "constant": true,
      "inputs": [],
      "name": "isFinalized",
      "outputs": [
        {
          "name": "",
          "type": "bool"
        }
      ],
      "payable": false,
      "stateMutability": "view",
      "type": "function"
    },
    {
      "constant": true,
      "inputs": [],
      "name": "openingTime",
      "outputs": [
        {
          "name": "",
          "type": "uint256"
        }
      ],
      "payable": false,
      "stateMutability": "view",
      "type": "function"
    },
    {
      "constant": false,
      "inputs": [
        {
          "name": "_beneficiary",
          "type": "address"
        }
      ],
      "name": "buyTokens",
      "outputs": [],
      "payable": true,
      "stateMutability": "payable",
      "type": "function"
    },
    {
      "constant": true,
      "inputs": [],
      "name": "token",
      "outputs": [
        {
          "name": "",
          "type": "address"
        }
      ],
      "payable": false,
      "stateMutability": "view",
      "type": "function"
    },
    {
      "inputs": [
        {
          "name": "_rate",
          "type": "uint256"
        },
        {
          "name": "_wallet",
          "type": "address"
        },
        {
          "name": "_token",
          "type": "address"
        },
        {
          "name": "_openingTime",
          "type": "uint256"
        },
        {
          "name": "_closingTime",
          "type": "uint256"
        },
        {
          "name": "_cap",
          "type": "uint256"
        }
      ],
      "payable": false,
      "stateMutability": "nonpayable",
      "type": "constructor"
    },
    {
      "payable": true,
      "stateMutability": "payable",
      "type": "fallback"
    },
    {
      "anonymous": false,
      "inputs": [],
      "name": "Finalized",
      "type": "event"
    },
    {
      "anonymous": false,
      "inputs": [
        {
          "indexed": true,
          "name": "purchaser",
          "type": "address"
        },
        {
          "indexed": true,
          "name": "beneficiary",
          "type": "address"
        },
        {
          "indexed": false,
          "name": "value",
          "type": "uint256"
        },
        {
          "indexed": false,
          "name": "amount",
          "type": "uint256"
        }
      ],
      "name": "TokenPurchase",
      "type": "event"
    },
    {
      "constant": false,
      "inputs": [],
      "name": "finalize",
      "outputs": [],
      "payable": false,
      "stateMutability": "nonpayable",
      "type": "function"
    }
  ],
  "bytecode": "0x60806040526000600760006101000a81548160ff02191690831515021790555034801561002b57600080fd5b5060405160c080610ab083398101806040528101908080519060200190929190805190602001909291908051906020019092919080519060200190929190805190602001909291908051906020019092919050505080838388888860008311151561009557600080fd5b600073ffffffffffffffffffffffffffffffffffffffff168273ffffffffffffffffffffffffffffffffffffffff16141515156100d157600080fd5b600073ffffffffffffffffffffffffffffffffffffffff168173ffffffffffffffffffffffffffffffffffffffff161415151561010d57600080fd5b8260028190555081600160006101000a81548173ffffffffffffffffffffffffffffffffffffffff021916908373ffffffffffffffffffffffffffffffffffffffff160217905550806000806101000a81548173ffffffffffffffffffffffffffffffffffffffff021916908373ffffffffffffffffffffffffffffffffffffffff1602179055505050504282101515156101a757600080fd5b8181101515156101b657600080fd5b816004819055508060058190555050506000811115156101d557600080fd5b80600681905550505050505050506108be806101f26000396000f3006080604052600436106100ba576000357c0100000000000000000000000000000000000000000000000000000000900463ffffffff1680631515bc2b146100c55780632c4e722e146100f4578063355274ea1461011f5780634042b66f1461014a5780634b6753bc146101755780634bb278f3146101a05780634f935945146101b7578063521eb273146101e65780638d4e40831461023d578063b7a8807c1461026c578063ec8ac4d814610297578063fc0c546a146102cd575b6100c333610324565b005b3480156100d157600080fd5b506100da6103f2565b604051808215151515815260200191505060405180910390f35b34801561010057600080fd5b506101096103fe565b6040518082815260200191505060405180910390f35b34801561012b57600080fd5b50610134610404565b6040518082815260200191505060405180910390f35b34801561015657600080fd5b5061015f61040a565b6040518082815260200191505060405180910390f35b34801561018157600080fd5b5061018a610410565b6040518082815260200191505060405180910390f35b3480156101ac57600080fd5b506101b5610416565b005b3480156101c357600080fd5b506101cc6104a5565b604051808215151515815260200191505060405180910390f35b3480156101f257600080fd5b506101fb6104b4565b604051808273ffffffffffffffffffffffffffffffffffffffff1673ffffffffffffffffffffffffffffffffffffffff16815260200191505060405180910390f35b34801561024957600080fd5b506102526104da565b604051808215151515815260200191505060405180910390f35b34801561027857600080fd5b506102816104ed565b6040518082815260200191505060405180910390f35b6102cb600480360381019080803573ffffffffffffffffffffffffffffffffffffffff169060200190929190505050610324565b005b3480156102d957600080fd5b506102e26104f3565b604051808273ffffffffffffffffffffffffffffffffffffffff1673ffffffffffffffffffffffffffffffffffffffff16815260200191505060405180910390f35b6000803491506103348383610518565b61033d8261054b565b90506103548260035461056990919063ffffffff16565b6003819055506103648382610585565b8273ffffffffffffffffffffffffffffffffffffffff163373ffffffffffffffffffffffffffffffffffffffff167f623b3804fa71d67900d064613da8f94b9617215ee90799290593e1745087ad188484604051808381526020018281526020019250505060405180910390a36103db8383610593565b6103e3610597565b6103ed8383610602565b505050565b60006005544211905090565b60025481565b60065481565b60035481565b60055481565b600760009054906101000a900460ff1615151561043257600080fd5b61043a6103f2565b8061044957506104486104a5565b5b151561045457600080fd5b61045c610606565b7f6823b073d48d6e3a7d385eeb601452d680e74bb46afe3255a7d778f3a9b1768160405160405180910390a16001600760006101000a81548160ff021916908315150217905550565b60006006546003541015905090565b600160009054906101000a900473ffffffffffffffffffffffffffffffffffffffff1681565b600760009054906101000a900460ff1681565b60045481565b6000809054906101000a900473ffffffffffffffffffffffffffffffffffffffff1681565b61052282826106cf565b60065461053a8260035461056990919063ffffffff16565b1115151561054757600080fd5b5050565b6000610562600254836106fc90919063ffffffff16565b9050919050565b6000818301905082811015151561057c57fe5b80905092915050565b61058f8282610734565b5050565b5050565b600160009054906101000a900473ffffffffffffffffffffffffffffffffffffffff1673ffffffffffffffffffffffffffffffffffffffff166108fc349081150290604051600060405180830381858888f193505050501580156105ff573d6000803e3d6000fd5b50565b5050565b60008060009054906101000a900473ffffffffffffffffffffffffffffffffffffffff1690508073ffffffffffffffffffffffffffffffffffffffff16637d64bcb46040518163ffffffff167c0100000000000000000000000000000000000000000000000000000000028152600401602060405180830381600087803b15801561069057600080fd5b505af11580156106a4573d6000803e3d6000fd5b505050506040513d60208110156106ba57600080fd5b81019080805190602001909291905050505050565b60045442101580156106e357506005544211155b15156106ee57600080fd5b6106f88282610842565b5050565b60008083141561070f576000905061072e565b818302905081838281151561072057fe5b0414151561072a57fe5b8090505b92915050565b6000809054906101000a900473ffffffffffffffffffffffffffffffffffffffff1673ffffffffffffffffffffffffffffffffffffffff166340c10f1983836040518363ffffffff167c0100000000000000000000000000000000000000000000000000000000028152600401808373ffffffffffffffffffffffffffffffffffffffff1673ffffffffffffffffffffffffffffffffffffffff16815260200182815260200192505050602060405180830381600087803b1580156107f857600080fd5b505af115801561080c573d6000803e3d6000fd5b505050506040513d602081101561082257600080fd5b8101908080519060200190929190505050151561083e57600080fd5b5050565b600073ffffffffffffffffffffffffffffffffffffffff168273ffffffffffffffffffffffffffffffffffffffff161415151561087e57600080fd5b6000811415151561088e57600080fd5b50505600a165627a7a72305820f495371b93b0c70cf6298e9e62cd7eab84e20ba9d28c67545c3f3292e79b58c00029",
  "source": "pragma solidity ^0.4.23;\n\nimport \"openzeppelin-solidity/contracts/crowdsale/Crowdsale.sol\";\nimport \"openzeppelin-solidity/contracts/crowdsale/validation/TimedCrowdsale.sol\";\nimport \"openzeppelin-solidity/contracts/crowdsale/validation/CappedCrowdsale.sol\";\nimport \"openzeppelin-solidity/contracts/crowdsale/emission/MintedCrowdsale.sol\";\nimport \"openzeppelin-solidity/contracts/token/ERC20/ERC20.sol\";\n\ninterface MintableERC20 {\n  function finishMinting() public returns (bool);\n}\n\ncontract NauhCrowdsale is Crowdsale, TimedCrowdsale, CappedCrowdsale, MintedCrowdsale {\n  bool public isFinalized = false;\n\n  event Finalized();\n  constructor\n  (\n    uint256 _rate,\n    address _wallet,\n    ERC20 _token,\n    uint256 _openingTime,\n    uint256 _closingTime,\n    uint256 _cap\n  ) \n    Crowdsale(_rate, _wallet, _token)\n    TimedCrowdsale(_openingTime, _closingTime)\n    CappedCrowdsale(_cap)\n    public\n  {\n\n  }\n\n  function finalize() public {\n    require(!isFinalized);\n    require(hasClosed() || capReached());\n\n    finalization();\n    emit Finalized();\n\n    isFinalized = true;\n  }\n\n\n  function finalization() internal {\n    MintableERC20 mintableToken = MintableERC20(token);\n    mintableToken.finishMinting();  \n  }\n\n}",
  "sourcePath": "/Users/levanhuan/lab/ethereum/nauh-ico/contracts/NauhCrowdsale.sol",
  "compiler": {
    "name": "solc",
    "version": "0.4.23+commit.124ca40d.Emscripten.clang"
  },
  "schemaVersion": "2.0.0",
  "updatedAt": "2018-09-11T03:12:36.879Z"
}