{
  "contractName": "Payment",
  "abi": [
    {
      "constant": true,
      "inputs": [],
      "name": "totalPayments",
      "outputs": [
        {
          "name": "",
          "type": "uint256"
        }
      ],
      "payable": false,
      "stateMutability": "view",
      "type": "function"
    },
    {
      "constant": false,
      "inputs": [],
      "name": "withdrawPayments",
      "outputs": [],
      "payable": false,
      "stateMutability": "nonpayable",
      "type": "function"
    },
    {
      "constant": true,
      "inputs": [
        {
          "name": "",
          "type": "address"
        }
      ],
      "name": "payments",
      "outputs": [
        {
          "name": "",
          "type": "uint256"
        }
      ],
      "payable": false,
      "stateMutability": "view",
      "type": "function"
    },
    {
      "inputs": [],
      "payable": false,
      "stateMutability": "nonpayable",
      "type": "constructor"
    }
  ],
  "bytecode": "0x608060405234801561001057600080fd5b506101df806100206000396000f3006080604052600436106100555763ffffffff7c01000000000000000000000000000000000000000000000000000000006000350416625b4487811461005a5780636103d70b14610081578063e2982c2114610098575b600080fd5b34801561006657600080fd5b5061006f6100c6565b60408051918252519081900360200190f35b34801561008d57600080fd5b506100966100cc565b005b3480156100a457600080fd5b5061006f73ffffffffffffffffffffffffffffffffffffffff6004351661018f565b60015481565b3373ffffffffffffffffffffffffffffffffffffffff81166000908152602081905260409020548015156100ff57600080fd5b73ffffffffffffffffffffffffffffffffffffffff30163181111561012357600080fd5b600154610136908263ffffffff6101a116565b60015573ffffffffffffffffffffffffffffffffffffffff82166000818152602081905260408082208290555183156108fc0291849190818181858888f1935050505015801561018a573d6000803e3d6000fd5b505050565b60006020819052908152604090205481565b6000828211156101ad57fe5b509003905600a165627a7a72305820eb9f29d564bf901b498390b0dd895cba528faa0798a9e7bb8a5b296895676b010029",
  "source": "pragma solidity ^0.4.23;\n\nimport \"openzeppelin-solidity/contracts/payment/PullPayment.sol\";\n\ncontract Payment is PullPayment {\n  constructor()\n    PullPayment()\n    public\n  {\n\n  }\n}",
  "sourcePath": "/Users/levanhuan/lab/ethereum/nauh-ico/contracts/Payment.sol",
  "compiler": {
    "name": "solc",
    "version": "0.4.23+commit.124ca40d.Emscripten.clang"
  },
  "schemaVersion": "2.0.0",
  "updatedAt": "2018-10-10T13:53:36.494Z"
}