{
  "contractName": "PullPayment",
  "abi": [
    {
      "constant": true,
      "inputs": [],
      "name": "totalPayments",
      "outputs": [
        {
          "name": "",
          "type": "uint256"
        }
      ],
      "payable": false,
      "stateMutability": "view",
      "type": "function"
    },
    {
      "constant": true,
      "inputs": [
        {
          "name": "",
          "type": "address"
        }
      ],
      "name": "payments",
      "outputs": [
        {
          "name": "",
          "type": "uint256"
        }
      ],
      "payable": false,
      "stateMutability": "view",
      "type": "function"
    },
    {
      "constant": false,
      "inputs": [],
      "name": "withdrawPayments",
      "outputs": [],
      "payable": false,
      "stateMutability": "nonpayable",
      "type": "function"
    }
  ],
  "bytecode": "0x608060405234801561001057600080fd5b506101df806100206000396000f3006080604052600436106100555763ffffffff7c01000000000000000000000000000000000000000000000000000000006000350416625b4487811461005a5780636103d70b14610081578063e2982c2114610098575b600080fd5b34801561006657600080fd5b5061006f6100c6565b60408051918252519081900360200190f35b34801561008d57600080fd5b506100966100cc565b005b3480156100a457600080fd5b5061006f73ffffffffffffffffffffffffffffffffffffffff6004351661018f565b60015481565b3373ffffffffffffffffffffffffffffffffffffffff81166000908152602081905260409020548015156100ff57600080fd5b73ffffffffffffffffffffffffffffffffffffffff30163181111561012357600080fd5b600154610136908263ffffffff6101a116565b60015573ffffffffffffffffffffffffffffffffffffffff82166000818152602081905260408082208290555183156108fc0291849190818181858888f1935050505015801561018a573d6000803e3d6000fd5b505050565b60006020819052908152604090205481565b6000828211156101ad57fe5b509003905600a165627a7a72305820582bc6f10220ca8130f828c709bdf869d90b0891d8953fd6364f4a6e9d2f17970029",
  "source": "pragma solidity ^0.4.23;\n\n\nimport \"../math/SafeMath.sol\";\n\n\n/**\n * @title PullPayment\n * @dev Base contract supporting async send for pull payments. Inherit from this\n * contract and use asyncSend instead of send or transfer.\n */\ncontract PullPayment {\n  using SafeMath for uint256;\n\n  mapping(address => uint256) public payments;\n  uint256 public totalPayments;\n\n  /**\n  * @dev Withdraw accumulated balance, called by payee.\n  */\n  function withdrawPayments() public {\n    address payee = msg.sender;\n    uint256 payment = payments[payee];\n\n    require(payment != 0);\n    require(address(this).balance >= payment);\n\n    totalPayments = totalPayments.sub(payment);\n    payments[payee] = 0;\n\n    payee.transfer(payment);\n  }\n\n  /**\n  * @dev Called by the payer to store the sent amount as credit to be pulled.\n  * @param dest The destination address of the funds.\n  * @param amount The amount to transfer.\n  */\n  function asyncSend(address dest, uint256 amount) internal {\n    payments[dest] = payments[dest].add(amount);\n    totalPayments = totalPayments.add(amount);\n  }\n}\n",
  "sourcePath": "openzeppelin-solidity/contracts/payment/PullPayment.sol",
  "compiler": {
    "name": "solc",
    "version": "0.4.23+commit.124ca40d.Emscripten.clang"
  },
  "schemaVersion": "2.0.0",
  "updatedAt": "2018-10-10T08:58:07.578Z"
}